:020000040800F2
:10000000C01E0020C1020008C9020008CB0200087F
:1000100000000000000000000000000000000000E0
:10002000000000000000000000000000CD020008F9
:100030000000000000000000CF020008D10200080C
:10004000D3020008D3020008D3020008D30200083C
:10005000D3020008D3020008D3020008D30200082C
:1000600000000000D3020008D3020008D3020008F9
:10007000D3020008D3020008D302000800000000E9
:10008000D3020008D302000800000000D3020008D9
:10009000D3020008D3020008D3020008D3020008EC
:1000A000D3020008D3020008D3020008D3020008DC
:1000B000D302000800000000000000000000000063
:1000C000D302000800000000D30200080000000076
:1000D0000000000000000000000000000000000020
:1000E0000000000000000000000000000000000010
:1000F0000000000000000000000000000000000000
:1001000000000000000000000000000000000000EF
:1001100000000000000000000000000000000000DF
:1001200000000000000000000000000000000000CF
:1001300000000000000000000000000000000000BF
:1001400000000000000000000000000000000000AF
:10015000000000000000000000000000000000009F
:10016000000000000000000000000000000000008F
:10017000000000000000000000000000000000007F
:10018000000000000000000000000000000000006F
:10019000000000000000000000000000000000005F
:1001A000000000000000000000000000000000004F
:1001B000000000000000000000000000000000003F
:1001C000000000000000000000000000000000002F
:1001D000000000000000000000000000000000001F
:1001E000000000000000000000000000000000000F
:1001F00000000000000000000000000000000000FF
:1002000000000000020103330000000000000000B5
:1002100000000000FFFFFFFFFFFFFFFF00F002F8FC
:1002200000F03EF80CA030C8083824182D18671EBE
:10023000A246AB4654465D46AC4201D100F030F8D0
:100240007E460F3EB6460FCC0126334200D0FB1A45
:100250003343A246AB461847840C0000A40C0000B0
:10026000103A02D378C878C1FAD8520701D330C8FF
:1002700030C101D504680C607047000000230024E1
:1002800000250026103A01D378C1FBD8520700D3CD
:1002900030C100D50B6070471FB51FBD10B510BD34
:1002A00000F02DF81146FFF7F7FF00F0F1FC00F029
:1002B00045F803B4FFF7F2FF03BC00F04BF8000071
:1002C0000748804707480047FEE7FEE7FEE7FEE7EE
:1002D000FEE7FEE704480549054A064B7047000063
:1002E000650300081D020008C00C0020C01E00208D
:1002F000C00E0020C00E0020704770477047754642
:1003000000F024F8AE46050069465346C008C00018
:10031000854618B020B5FFF7DDFF60BCB646002665
:100320000027C0C5C0C5C0C5C0C5C0C5C0C5C0C503
:10033000C0C5403D490849008D46704710B5044688
:10034000C046C0462046FFF7B4FF10BD00487047C6
:100350002000002001491820ABBEFEE72600020065
:1003600070470000F8B54248011F0B680122134393
:100370000B600B689B07FCD5036880241C4304605A
:1003800000240094009B7F2B03D8009B5B1C0093F0
:10039000F8E7036890251D4305600094009B7F2BC0
:1003A00003D8009B5B1C0093F8E70323DD4306683A
:1003B0002E4006600D682F4E2E400E6005682E4EB2
:1003C0002E40066005682D4E2E400660856A0F2679
:1003D000B5438562C56A40F20316B543C56215048C
:1003E000C66AAE43C662D507C66AAE43C662056B2F
:1003F0009543056344600D6815430D60204D6D1EE7
:10040000264666410F68BF0701D4002EF7D10C685D
:10041000A40700D4FEE71B4D2E68022426430527BF
:10042000BE432E60056805600568056005680560C7
:100430000568154E2E4006600568144E2E43066072
:1004400012060D6815430D600A689201FCD501681B
:10045000994301600168214301600C2102680A4050
:10046000082AFBD10A48AC490160BFF34F8FF8BDA1
:1004700004100240FFFFF2FE0C00FF08FFFFC277EE
:10048000FF04000000200240FFFFC2F70000040844
:1004900008ED00E0F0B5002040F200110722D24341
:1004A000124B094C88420DD01546064635B17708E7
:1004B000F60700D067403E466D1CF7E785005E51A9
:1004C000401CEFE7F0BDC0462083B8EDB0B5074B48
:1004D00049B10478D5B26540AC001C59120A62409B
:1004E000401C491EF4E71046B0BDC0468000002005
:1004F000FEB58D48806906BA20360027019602971E
:1005000040F20044012E15DB3846114940F200420A
:1005100000F0C6FAB442354600DC25460C482946B0
:10052000029AFFF7D3FF029040F200403F18761B7B
:100530002C46E7E708220198054C214600F0B0FA66
:10054000206800BA0299411A48424841FEBDC0469F
:10055000A00400200020ED49202200F0A1BAC046EE
:10056000F0B589B00121415607910346CA091B26FF
:10057000324048004240049251004AB2D20932400F
:1005800040B2C00930404840039041005140022031
:10059000185608901C46C309334040004340069358
:1005A0005A0053B2DB09334040B2C00930405040DA
:1005B000029040005840484003216156019127466F
:1005C0000094CB09334049004B405C0062B2D5092E
:1005D000354049B2CA093240624051006940414049
:1005E000002038560590C40934404000444065005E
:1005F0006FB2FF09374040B2C00930406840460042
:100600007E404E40354608994D400599079F7940F8
:100610004D405D406540039F7A405540009FFD700E
:10062000019D6E407140069D69405940029B5840B3
:1006300041403B46B9703146089D6940059D69407F
:10064000049D6940069F79405140597007994E407A
:1006500008994E406E40664046401E7009B0F0BD9D
:10066000417B427A427342794378437142724170CE
:100670008178827A827081728179827B82718173C2
:10068000C178C279C270C27AC271C27BC173C272B0
:10069000704700009D48006802494118484248419F
:1006A0007047C046BDB9CECFB0B51022054B047817
:1006B0001C5D0D7865400570491C401C521E1406D7
:1006C000F5D1B0BD2C0D00089048806800BA704785
:1006D000BCB5104C2568280D01D000200DE0BB48AA
:1006E000002240F20C21FFF7F1FE024640F21420F6
:1006F000291A20460C30FFF7E9FE61680191019943
:10070000884201D10120BCBD044801990918484222
:100710004841BCBD081200080010000888A9CBEDB4
:100720007A48C06800BA70478004002010B51022D3
:100730000B7804785C400470491C401C521E130660
:10074000F6D110BDF0B593B06C49C868000603D56A
:100750006B4808606B480860342006908860382435
:10076000694F022540200A900597644EBCB100F005
:1007700033FA60B9F0682843F0603761F0680A998D
:100780000843F06000F028FAF068A843F0605B4886
:100790000699816040F200403F18641EE6E7574F1B
:1007A000F868802101910843F8605848806900BAD0
:1007B0000390012800DA9EE02020049040F20040DF
:1007C00010300290002000900498514E3146029A59
:1007D00000F066F90BA84FA13CC93CC0524C0098F0
:1007E00041283CD007900FA8314600F09FF84D4FAC
:1007F0003946A0313046FFF799FF903730460C302C
:100800000A90304608300990301D0890092530467E
:10081000FFF726FF30463946FFF746FF3046A04730
:100820000898A0470998A0470A98A047103F6D1E56
:100830002806ECD13046FFF713FF30463949FFF761
:1008400033FF0BAD30462946FFF770FF0FA928464E
:1008500000F06CF80798401C1036284FC0E72C4970
:10086000084610300C6840F2004131B10246103A9F
:1008700003781370401C491EF7E70026244840F215
:1008800000413246FFF722FE21BA884233D1F86890
:10089000000617D51A4838601A48386012E01C481C
:1008A000845900F09FF850B9F86801252843F86092
:1008B0000598345000F096F8F868A843F860069858
:1008C000B860361D40F200408642E8D3F8680199CE
:1008D0000843F86040F20040059909180591039912
:1008E00040F21040081A049A029BD21804929942CE
:1008F000039000DD68E713B0F0BDC046042002405D
:1009000023016745AB89EFCD00100008800400206B
:10091000B0080020F0F1F2F3F4F5F6F7F8F9FAFB7D
:10092000FCFDFEFF2C0E00086105000800228B581C
:100930008350121D102AFAD1704780F308880847A7
:1009400088B02248029000200190FFE70198072814
:100950000FDCFFE7019880000021C9431F4A815046
:10096000019880001E4A8150FFE70198401C0190C9
:10097000ECE7174800210160164801680122520681
:1009800011430160EFF31480049004A800788007FD
:10099000002813D5FFE7EFF309800690069805902D
:1009A000059880F30888EFF31480039003980221E0
:1009B00088430790079880F31488FFE70298064958
:1009C0000860029908684968FFF7B7FF001000083F
:1009D00010E000E004ED00E008ED00E080E100E060
:1009E00080E200E070B58A4A8A4901230424022586
:1009F0000868C007184606D10868C006204602D419
:100A0000086840082840012803D1561C002A3246B5
:100A1000EED1012800D1052070BDC046F8B50124F3
:100A200060041C490A6802430A60A0040A68024381
:100A30000A60A0050A6802430A60394D284600F0A2
:100A4000A5F82846103000F0A1F8A868A9888161AF
:100A5000A88AA9698861104D0826104F28462146AA
:100A600022463346B8472846314600F0F4F8AE61D6
:100A700020262846214622463346B8472846314696
:100A800000F0E9F8AE610021102328462246B8475D
:100A9000F8BDC0461410024000040048190C0008BC
:100AA000F8B514460D4606461D4988688988816256
:100AB0000B200D4FB847300CC0B2B847300AC0B257
:100AC000B847F0B2B84700263046B84734B1304690
:100AD00000F02AF828706D1C641EF7E7104988683A
:100AE00089888161F8BDC046610B0008F8B50C49E2
:100AF0008868898881629F200A4FB847FF25284669
:100B0000B84704462846B84706462846B847044A28
:100B1000916892888A613102000440180019F8BD7A
:100B200000000020290B0008F0B5002308210B4A23
:100B3000182420250E467EB1916147B2002F27462A
:100B400000DA0F46D55191605B001768FF06FF0F72
:100B5000FB18761E4000EEE7D8B2F0BD1004004846
:100B600070B50821084A1346103320240D4655B1AC
:100B7000116146B2002E1E4600DA1646346011603E
:100B80006D1E4000F3E770BD1804004810B5044620
:100B9000007B022807D001280FD0D8B9A38822688B
:100BA000A068002103E0A3882268A0680221019CBC
:100BB000A64610BC01B000F02FB8A3882268A06838
:100BC000012100F029F8A188A06810BC04BC964659
:100BD00000F041B810BD000070B50D4A0D49012369
:100BE000042402250868C007184606D10868C00614
:100BF000204602D4086840082840012803D1561C2A
:100C0000002A3246EED1012800D1052070BDC04631
:100C10000100F1FF0C200240FEB502930192026830
:100C20000090C56800263746102F10D0029BFB406D
:100C3000DB0709D0019BB3400324B440A5431D4307
:100C40000B46B340A2431A43B61C7F1CECE7009846
:100C50000260C560FEBDF8B50346426808468A4397
:100C60005A6000939A680023032401251E46102E23
:100C70000AD027469F400146F14029404942394069
:100C80000A439B1C761CF2E700988260F8BD0000C6
:100C900010B586B000240594FFF7C0FE0120400780
:100CA000016804910460FFF7F5FBFFF71FFF039055
:100CB000FFF750FCFFF7EEFCE8B1FFE7FFF730FD70
:100CC000029016480068019002980199884211D05C
:100CD000FFE7FFF7F9FC009000981149884208D11E
:100CE000FFE7FFF705FC18B1FFE7FFF72BFDFFE774
:100CF000FFE7FFE7FFE704980A4988420CD0FFE7C7
:100D0000FFF7E6FC28B9FFE704980749884202D1BB
:100D1000FFE7FFF715FEFFE7FFE7FEE70412000815
:100D2000003344557856341298BADCFE52096AD51D
:100D30003036A538BF40A39E81F3D7FB7CE33982D0
:100D40009B2FFF87348E4344C4DEE9CB547B94321F
:100D5000A6C2233DEE4C950B42FAC34E082EA16667
:100D600028D924B2765BA2496D8BD12572F8F6643E
:100D700086689816D4A45CCC5D65B6926C704850B9
:100D8000FDEDB9DA5E154657A78D9D8490D8AB006E
:100D90008CBCD30AF7E45805B8B34506D02C1E8F97
:100DA000CA3F0F02C1AFBD0301138A6B3A911141D3
:100DB0004F67DCEA97F2CFCEF0B4E67396AC7422BC
:100DC000E7AD3585E2F937E81C75DF6E47F11A713A
:100DD0001D29C5896FB7620EAA18BE1BFC563E4B73
:100DE000C6D279209ADBC0FE78CD5AF41FDDA83335
:100DF0008807C731B11210592780EC5F60517FA975
:100E000019B54A0D2DE57A9F93C99CEFA0E03B4DA3
:100E1000AE2AF5B0C8EBBB3C83539961172B047E17
:100E2000BA77D626E169146355210C7D01020304CB
:100E30000506070809000000000000006361606704
:100E40006667676F6F67676F6F67676FE4E4C8CF48
:100E50008283AFA0EDE4C8CF8283AFA00C9D28DCD5
:100E60008E1E877C63FA4FB3E179E013B27C552480
:100E70003C62D2585F989DEBBEE17DF85A83148A9C
:100E800066E1C6D239795B39879826C13C746C9D7E
:100E90005A95AA4F63ECF176E474D7B7EE7AC5F4AD
:100EA000B4EF6FBBD7039ECD3377497A9B411F3791
:100EB0002FAE708CF8ADEE41CBDAA73BD71DFD28E5
:100EC000F8B38DA4001E63E5CBC4C4DEFD01E0379A
:100ED00005B26D9305AC0E76CE68CAA8000F000867
:100EE000000000202000000060020008200F000821
:100EF00020000020A01E00007C020008000000006E
:100F00000100000000100000000000480100000087
:100F10000100000000800000000000480100000007
:040000050800021DD0
:00000001FF
