:020000040800F2
:10000000C01E0020C5020008CD020008CF02000873
:1000100000000000000000000000000000000000E0
:10002000000000000000000000000000D1020008F5
:100030000000000000000000D3020008D502000804
:10004000D7020008D7020008D7020008D70200082C
:10005000D7020008D7020008D7020008D70200081C
:1000600000000000D7020008D7020008D7020008ED
:10007000D7020008D7020008D702000800000000DD
:10008000D7020008D702000800000000D7020008CD
:10009000D7020008D7020008D7020008D7020008DC
:1000A000D7020008D7020008D7020008D7020008CC
:1000B000D70200080000000000000000000000005F
:1000C000D702000800000000D7020008000000006E
:1000D0000000000000000000000000000000000020
:1000E0000000000000000000000000000000000010
:1000F0000000000000000000000000000000000000
:1001000000000000000000000000000000000000EF
:1001100000000000000000000000000000000000DF
:1001200000000000000000000000000000000000CF
:1001300000000000000000000000000000000000BF
:1001400000000000000000000000000000000000AF
:10015000000000000000000000000000000000009F
:10016000000000000000000000000000000000008F
:10017000000000000000000000000000000000007F
:10018000000000000000000000000000000000006F
:10019000000000000000000000000000000000005F
:1001A000000000000000000000000000000000004F
:1001B000000000000000000000000000000000003F
:1001C000000000000000000000000000000000002F
:1001D000000000000000000000000000000000001F
:1001E000000000000000000000000000000000000F
:1001F00000000000000000000000000000000000FF
:1002000001CCBBAA0101010002CE000000000000E9
:1002100000000000100CCC0003010000400D0300A2
:1002200000F002F800F03EF80CA030C8083824189E
:100230002D18671EA246AB4654465D46AC4201D11E
:1002400000F030F87E460F3EB6460FCC0126334212
:1002500000D0FB1A3343A246AB461847800B000080
:10026000A00B0000103A02D378C878C1FAD8520720
:1002700001D330C830C101D504680C60704700005C
:100280000023002400250026103A01D378C1FBD8B2
:10029000520700D330C100D50B6070471FB51FBD9A
:1002A00010B510BD00F02DF81146FFF7F7FF00F074
:1002B000EDFA00F045F803B4FFF7F2FF03BC00F0DD
:1002C0004BF800000748804707480047FEE7FEE775
:1002D000FEE7FEE7FEE7FEE704480549054A064B50
:1002E000704700006903000821020008C00C0020CC
:1002F000C01E0020C00E0020C00E002070477047B6
:100300007047754600F024F8AE460500694653462E
:10031000C008C000854618B020B5FFF7DDFF60BCFF
:10032000B64600260027C0C5C0C5C0C5C0C5C0C5EB
:10033000C0C5C0C5C0C5403D490849008D4670478D
:1003400010B50446C046C0462046FFF7B4FF10BDB6
:10035000004870472000002001491820ABBEFEE78E
:100360002600020070470000F8B54248011F0B68E4
:10037000012213430B600B689B07FCD503688024A4
:100380001C43046000240094009B7F2B03D8009B37
:100390005B1C0093F8E7036890251D4305600094FB
:1003A000009B7F2B03D8009B5B1C0093F8E7032383
:1003B000DD4306682E4006600D682F4E2E400E600D
:1003C00005682E4E2E40066005682D4E2E400660B4
:1003D000856A0F26B5438562C56A40F20316B543A8
:1003E000C5621504C66AAE43C662D507C66AAE4387
:1003F000C662056B9543056344600D6815430D6047
:10040000204D6D1E264666410F68BF0701D4002EA1
:10041000F7D10C68A40700D4FEE71B4D2E68022418
:1004200026430527BE432E60056805600568056004
:10043000056805600568154E2E4006600568144E77
:100440002E43066012060D6815430D600A6892017E
:10045000FCD50168994301600168214301600C21CA
:1004600002680A40082AFBD10A488B490160BFF3A1
:100470004F8FF8BD04100240FFFFF2FE0C00FF0892
:10048000FFFFC277FF04000000200240FFFFC2F719
:100490000000040808ED00E0B0B5074B49B104784E
:1004A000D5B26540AC001C59120A6240401C491E7E
:1004B000F4E71046B0BDC04680000020F0B589B01A
:1004C0000121415607910346CA091B2632404800C4
:1004D0004240049251004AB2D209324040B2C009AF
:1004E0003040484003904100514002201856089087
:1004F0001C46C30933404000434006935A0053B2A0
:10050000DB09334040B2C009304050400290400007
:100510005840484003216156019127460094CB0979
:10052000334049004B405C0062B2D509354049B2C6
:10053000CA093240624051006940414000203856AB
:100540000590C40934404000444065006FB2FF0983
:10055000374040B2C0093040684046007E404E40BF
:10056000354608994D400599079F79404D405D40BB
:100570006540039F7A405540009FFD70019D6E408D
:100580007140069D69405940029B584041403B469E
:10059000B9703146089D6940059D6940049D6940D8
:1005A000069F79405140597007994E4008994E4036
:1005B0006E40664046401E7009B0F0BD417B427AF5
:1005C0004273427943784371427241708178827AF2
:1005D000827081728179827B82718173C178C279E4
:1005E000C270C27AC271C27BC173C272704700000E
:1005F000B0B51022054B04781C5D0D786540057080
:10060000491C401C521E1406F5D1B0BD2C0C00082C
:1006100010B510220B7804785C400470491C401C13
:10062000521E1306F6D110BD00228B588350121DA6
:10063000102AFAD1704780F3088808470020C14388
:10064000114A124B202803D08150C150001DF9E7F8
:100650000F4800210160012041060E4802680A434C
:100660000260EFF31481890709D5EFF3098181F363
:1006700008880221EFF314828A4382F31488064922
:10068000416003C9FFF7D7FF80E100E080E200E0AE
:1006900010E000E004ED00E00010000870B55B4AD7
:1006A0005B490123042402250868C007184606D1C7
:1006B0000868C006204602D408684008284001287F
:1006C00003D1561C002A3246EED1012800D1052064
:1006D00070BDC046F8B514460D4606460F498868F9
:1006E000898881620B200E4FB847300CC0B2B847E2
:1006F000300AC0B2B847F0B2B84700263046B84713
:1007000034B1304600F00EF828706D1C641EF7E717
:100710000249886889888161F8BDC04600000020D0
:100720005D070008F0B5002308210B4A1824202596
:100730000E467EB1916147B2002F274600DA0F4680
:10074000D55191605B001768FF06FF0FFB18761EFE
:100750004000EEE7D8B2F0BD1004004870B50821A3
:10076000084A1346103320240D4655B1116146B294
:10077000002E1E4600DA1646346011606D1E4000E1
:10078000F3E770BD1804004810B50446007B02284A
:1007900007D001280FD0D8B9A3882268A06800210B
:1007A00003E0A3882268A0680221019CA64610BC31
:1007B00001B000F02FB8A3882268A068012100F0E2
:1007C00029F8A188A06810BC04BC964600F041B886
:1007D00010BD000070B50D4A0D4901230424022507
:1007E0000868C007184606D10868C006204602D42B
:1007F000086840082840012803D1561C002A3246C8
:10080000EED1012800D1052070BDC0460100F1FFE6
:100810000C200240FEB50293019202680090C56868
:1008200000263746102F10D0029BFB40DB0709D073
:10083000019BB3400324B440A5431D430B46B34082
:10084000A2431A43B61C7F1CECE700980260C56007
:10085000FEBDF8B50346426808468A435A600093D5
:100860009A680023032401251E46102E0AD027462D
:100870009F400146F1402940494239400A439B1CB0
:10088000761CF2E700988260F8BD000096B0012760
:100890007804D0490A6802430A60B8040A6802432F
:1008A0000A60B8050A6802430A60CB4C2046FFF78D
:1008B0006BFF20461030FFF767FFA068A1888161B9
:1008C000A08AA1698861C54C0826C54D20463946D5
:1008D0003A463346A84720463146FFF7BAFFA6619D
:1008E0002026204639463A463346A8472046314618
:1008F000FFF7AFFFA66100261023204631463A4697
:10090000A84706977807066040F20015B648B54933
:10091000AE420ED00722D243334632B15C08DB0729
:1009200000D04C402346521CF7E7B2008350761C9F
:10093000EEE7A9498868898881629F20AB4CA0476F
:10094000FF263046A0470C903046A0470746304669
:10095000A047A14A916892888A6139020004401830
:100960000C9940180D900020A14C202200902146A7
:100970000592FFF7AFFE20689F49884200D00DE145
:100980009C480068E16809BA814200D106E1EC3573
:10099000A068A84200D001E1A06905BA2035002472
:1009A0000B950C9440F20046012D15DB204693492F
:1009B00040F20042FFF78EFEAE422F4600DC374683
:1009C0008E4839460C9AFFF767FD0C9040F20040C4
:1009D0002418ED1B3E46E7E708220B98874C21467A
:1009E000FFF778FE206800BA0C99884200D0D5E065
:1009F0008349C868000603D58248086082480860B9
:100A00003420089088603824804F022540200C90C4
:100A100007977B4EBCB1FFF7DDFE60B9F068284355
:100A2000F0603761F0680C990843F060FFF7D2FE80
:100A3000F068A843F06072480899816040F2004075
:100A40003F18641EE6E76E4FF86880210291084364
:100A5000F8606748806900BA0490012800DA9DE0D8
:100A600040F2004010300390002001900598684E3D
:100A70003146039AFFF72EFE0EA866A13CC93CC082
:100A80000198354641283DD0099012A82946FFF724
:100A9000CBFD644F3946A0312846FFF7B9FD9037AA
:100AA00028460C300C90284608300B90281D0A90E0
:100AB00009265D4C2846FFF781FD28463946FFF799
:100AC00097FD2846A0470A98A0470B98A0470C9886
:100AD000A047103F761E3006ECD12846FFF76EFD8A
:100AE00028465049FFF784FD0EAC28462146FFF703
:100AF0008FFD12A92046FFF797FD0998401C10357D
:100B00003F4FBFE74249084610300C6840F20041B1
:100B100031B10246103A03781370401C491EF7E7C2
:100B200000253B4840F200412A46FFF7B5FC21BAB8
:100B3000884233D1F868000617D532483860324809
:100B4000386012E032484459FFF7A8FD50B9F86800
:100B5000069E3043F86007982C50FFF79FFDF86819
:100B6000B043F8600898B8602D1D40F200408542FF
:100B7000E8D3F86802990843F86040F2004007990A
:100B800009180791049A40F21040101A0599039B26
:100B9000C91805919A42049000DD67E7154D6C680D
:100BA000200D00980DD11948002240F20C21FFF7CA
:100BB00073FC024640F21420211A28461030FFF739
:100BC0006BFCA96812911299884200D01298FFF725
:100BD00035FDC0461410024000000020000400480B
:100BE000150800082083B8ED8000002025070008C4
:100BF000800400200412000843463130A004002085
:100C00000420024023016745AB89EFCD00100008A6
:100C1000B0080020F0F1F2F3F4F5F6F7F8F9FAFB7A
:100C2000FCFDFEFF2C0D0008BD04000852096AD52A
:100C30003036A538BF40A39E81F3D7FB7CE33982D1
:100C40009B2FFF87348E4344C4DEE9CB547B943220
:100C5000A6C2233DEE4C950B42FAC34E082EA16668
:100C600028D924B2765BA2496D8BD12572F8F6643F
:100C700086689816D4A45CCC5D65B6926C704850BA
:100C8000FDEDB9DA5E154657A78D9D8490D8AB006F
:100C90008CBCD30AF7E45805B8B34506D02C1E8F98
:100CA000CA3F0F02C1AFBD0301138A6B3A911141D4
:100CB0004F67DCEA97F2CFCEF0B4E67396AC7422BD
:100CC000E7AD3585E2F937E81C75DF6E47F11A713B
:100CD0001D29C5896FB7620EAA18BE1BFC563E4B74
:100CE000C6D279209ADBC0FE78CD5AF41FDDA83336
:100CF0008807C731B11210592780EC5F60517FA976
:100D000019B54A0D2DE57A9F93C99CEFA0E03B4DA4
:100D1000AE2AF5B0C8EBBB3C83539961172B047E18
:100D2000BA77D626E169146355210C7D01020304CC
:100D30000506070809000000000000006361606705
:100D40006667676F6F67676F6F67676FE4E4C8CF49
:100D50008283AFA0EDE4C8CF8283AFA00C9D28DCD6
:100D60008E1E877C63FA4FB3E179E013B27C552481
:100D70003C62D2585F989DEBBEE17DF85A83148A9D
:100D800066E1C6D239795B39879826C13C746C9D7F
:100D90005A95AA4F63ECF176E474D7B7EE7AC5F4AE
:100DA000B4EF6FBBD7039ECD3377497A9B411F3792
:100DB0002FAE708CF8ADEE41CBDAA73BD71DFD28E6
:100DC000F8B38DA4001E63E5CBC4C4DEFD01E0379B
:100DD00005B26D9305AC0E76CE68CAA8000E000869
:100DE000000000202000000064020008200E00081F
:100DF00020000020A01E000080020008000000006B
:100E00000100000000100000000000480100000088
:100E10000100000000800000000000480100000008
:0400000508000221CC
:00000001FF
