:020000040800F2
:1000000040100020A1020008A5020008A702000875
:10001000A9020008AB020008AD02000800000000C1
:10002000000000000000000000000000AF02000817
:10003000B102000800000000B3020008B502000889
:10004000B7020008B7020008B7020008B7020008AC
:10005000B7020008B7020008B7020008B70200089C
:10006000B7020008B7020008B7020008B70200088C
:10007000B7020008B7020008B7020008B70200087C
:10008000B7020008B7020008B7020008B70200086C
:10009000B7020008B7020008B7020008B70200085C
:1000A000B7020008B7020008B7020008B70200084C
:1000B000B7020008B7020008B7020008B70200083C
:1000C000B7020008B7020008B7020008B70200082C
:1000D000B7020008B7020008B7020008B70200081C
:1000E000B7020008B7020008B7020008B70200080C
:1000F000B7020008B7020008B7020008B7020008FC
:10010000B7020008B7020008B7020008B7020008EB
:10011000B7020008B7020008B7020008B7020008DB
:10012000B7020008B7020008B7020008B7020008CB
:10013000B7020008B7020008B7020008B7020008BB
:10014000B7020008B7020008B7020008B7020008AB
:10015000000000000000000000000000000000009F
:10016000000000000000000000000000000000008F
:10017000000000000000000000000000000000007F
:10018000000000000000000000000000000000006F
:10019000000000000000000000000000000000005F
:1001A000000000000000000000000000000000004F
:1001B000000000000000000000000000000000003F
:1001C000000000000000000000000000000000002F
:1001D000000000000000000000000000000000001F
:1001E000000000000000000000000000000000000F
:1001F00000000000000000000000000000000000FF
:1002000003CCBBAA0101010002CE000000000000E7
:1002100000000000100CCC0003030000400D0300A0
:1002200000F002F800F02CF80AA090E8000C8244DC
:100230008344AAF10107DA4501D100F021F8AFF2B9
:10024000090EBAE80F0013F0010F18BFFB1A43F0B4
:1002500001031847B00B0000C00B0000002300246E
:1002600000250026103A28BF78C1FBD8520728BFC6
:1002700030C148BF0B6070471FB51FBD10B510BD22
:10028000DFF80CD0FFF7F8FF00F004FC00F09CF85A
:100290004010002003B4FFF7F1FF03BC00F09EF80C
:1002A00008480047FEE7FEE7FEE7FEE7FEE7FEE759
:1002B000FEE7FEE7FEE7FEE703480449024A044B77
:1002C0007047000021020008400C00204010002070
:1002D000400C0020032A40F2308010F0030C00F0A4
:1002E000158011F8013BBCF1020F624498BF11F870
:1002F00001CB00F8013B38BF11F8013BA2F1040229
:1003000098BF00F801CB38BF00F8013B11F00303A0
:1003100000F02880083AC0F0088051F8043B083A01
:1003200051F804CBA0E80810F5E7121D5CBF51F8A6
:10033000043B40F8043BAFF30080D20724BF11F820
:10034000013B11F801CB48BF11F8012B24BF00F885
:10035000013B00F801CB48BF00F8012B7047704704
:100360007047704710B5203AC0F00B80B1E81850C4
:10037000203AA0E81850B1E81850A0E81850BFF48F
:10038000F5AF5FEA027C24BFB1E81850A0E818502E
:1003900044BF18C918C0BDE810405FEA827C24BF82
:1003A00051F8043B40F8043B08BF7047D20728BF10
:1003B00031F8023B48BF11F8012B28BF20F8023B5F
:1003C00048BF00F8012B704710B50446AFF300801A
:1003D0002046BDE81040FFF75DBF0000014918202E
:1003E000ABBEFEE7260002007047000038B500F003
:1003F0003FFA04460648006800900098844203D003
:1004000004490098884201D1012038BD0020FCE752
:100410000C1200087856341270B503460C46154687
:1004200000BF40CC40C32D1F002DFAD170BD00008D
:100430002DE9FF410446102211496846FFF74AFFA3
:100440002646002505E06946304600F0AFF9103633
:100450006D1C412DF7DB206800F074FB074604F1AA
:100460001006002504E016F8010B04F8010B6D1CC2
:10047000B5F5806FF7DB384604B0BDE8F0810000C9
:10048000F40D000810B50C4B002012E001460822C4
:1004900009E001F001041CB1074C84EA510400E0BA
:1004A0004C082146521E002AF3D1044C44F8201077
:1004B000401CFF28EAD910BD2083B8ED00000020C1
:1004C00070B505460C460926A03410222146284660
:1004D00000F05EF9103C00BF284600F0F9F8102249
:1004E0002146284600F00EF9103C284600F0DFF8BF
:1004F000701EC0B2061EEFD1284600F0E9F81022A7
:100500002146284600F0FEF870BD70B54578867823
:100510007540C67885EA0601057886787540C67804
:1005200085EA0602057846787540C67885EA0603AE
:10053000057846787540867885EA0604057805F0E2
:1005400080050DB11B2500E00025067885EA4605EB
:100550000570457805F080050DB11B2500E00025EC
:10056000467885EA46054570857805F080050DB129
:100570001B2500E00025867885EA46058570C5784C
:1005800005F080050DB11B2500E00025C67885EA41
:100590004605C57005784678754069404578867887
:1005A00075406A408578C67875406B400578C67896
:1005B00075406C40057805F080050DB11B2500E005
:1005C0000025067885EA46050570457805F0800522
:1005D0000DB11B2500E00025467885EA46054570EB
:1005E000857805F080050DB11B2500E00025867893
:1005F00085EA46058570C57805F080050DB11B2597
:1006000000E00025C67885EA4605C570057886783D
:10061000754069404578C67875406A4005788678A7
:1006200075406B404578C67875406C40057805F09C
:1006300080050DB11B2500E00025067885EA4605FA
:100640000570457805F080050DB11B2500E00025FB
:10065000467885EA46054570857805F080050DB138
:100660001B2500E00025867885EA46058570C5785B
:1006700005F080050DB11B2500E00025C67885EA50
:100680004605C570457886787540C6787540067809
:10069000754005700578694005786A4005786B40BB
:1006A00005786C40017042708370C47070BD10B5E5
:1006B00004462046FFF729FF201DFFF726FF04F11F
:1006C0000800FFF722FF04F10C00FFF71EFF10BD2A
:1006D000417B427A42734279427242784271417060
:1006E0008178827A827081728179827B8271817352
:1006F000C178C279C270C27AC271C27BC272C17340
:100700007047000010B500BF0378064CE35C0C781E
:1007100063400370401C491C531EDBB21A1EF3D108
:1007200010BD0000F40C000830B503461C4608E07C
:1007300014F8010BD5B26840054D55F8200080EA49
:100740001222081EA1F10101F2D1104630BD0000B5
:100750000000002008B50D490989009100BF0B4930
:10076000098901F002010029F9D00849888100BFF8
:10077000064909890091009901F001010029F7D08B
:1007800000BF00BF01498989C8B208BD00300140DF
:1007900010B500BF03780C7863400370401C491CFF
:1007A000531EDBB21A1EF5D110BD00003FB5044642
:1007B0000D46102221466846FFF72EFE07492046C7
:1007C000FFF77EFE102229462046FFF7E1FF1022A8
:1007D00069462846FFF720FE3FBD0000440C000894
:1007E0002DE9F047DFF86490D9F8000000F0AAF98D
:1007F00082460AF1200500272C46B8464FF4806651
:1008000011E0134A4FF48061404600F0D7F9A64248
:1008100000DD26463A4631460D48FFF785FF07467C
:10082000A41B08F58068002CEBDC2846084A04214C
:1008300000F0C4F90649086800F084F9B84202D112
:100840000120BDE8F0870020FBE70000180400202D
:1008500020040020044800680449884201D1012096
:1008600070470020FCE700000004002043463130C0
:1008700070B50C4C0C480568B5F5801F01D30020FD
:1008800070BD00224FF403712046FFF74DFF06466E
:10089000A5F50571324604F50570FFF745FF0646DC
:1008A0003046EDE700100008081200082DE9F0417D
:1008B0001749184800F082F800F042F80546202455
:1008C000144E20E0144A4FF48261204600F076F97D
:1008D0001148FFF7ADFD074600224FF480610E4836
:1008E000FFF722FF8046B84500D00EE04FF480624B
:1008F0000949304600F088F804F58264A5F5826560
:1009000006F5806600BF002DDCDC00BFBDE8F0818D
:1009100000000208001000083008002005480069A7
:1009200000F0800020B10448024948600348486054
:10093000704700000020024023016745AB89EFCDDE
:1009400010B50249886900F0FDF810BD00040020D0
:1009500010B50249886800F0F5F810BD00040020C9
:1009600010B50249C86800F0EDF810BD0004002081
:10097000704770470C48406840F001000A494860E1
:100980004FF41040094908604FF0443007491039CE
:1009900008600748091D08600648074908604FF0CD
:1009A0004430091D086070470000014010080140F4
:1009B0004444011044B4B444000C014070B50546F1
:1009C0000E462C46FFF7AAFF18E000F029F998B16F
:1009D0000C48006940F002000A4908610846446179
:1009E000006940F04000086100F01AF9054800690C
:1009F00020F002000349086104F58064B442E4D3A6
:100A0000002070BD002002402DE9F04105460E4651
:100A10001446FFF783FFA84637460EE00C480069EE
:100A200040F001000A4908613888A8F8000000F089
:100A3000F7F808F10208BF1CA41E002CEED10448F0
:100A4000006920F00100024908610020BDE8F08142
:100A50000020024000210D4A91600D49096841F0D3
:100A600002010B4A1160094948681521074A516182
:100A70001146896945F63D221143044A91611146A8
:100A8000C96941F40031D161704700000010024093
:100A90000020024008B572B6FFF7DCFF234840682B
:100AA00040F0007021494860FFF764FF00F058F8FB
:100AB00005204FF0E02108614FF00050046800204D
:100AC0004FF00051086000F09BF8FFF7DBFC00F0EE
:100AD00057F8009000F03AF8FFF7BCFEB8B1FFF706
:100AE0003FFF054612480668B5420FD0FFF730FFBA
:100AF00007461048874208D1FFF772FE28B1FFF77A
:100B000038FFFFF7D3FEFFF733FF00BF00BF0A48EF
:100B1000844209D0FFF76AFC10B90848844203D127
:100B200062B607494868804700BFFEE70000014001
:100B300004120008000001EC7856341298BADCFE6A
:100B400000100008014608BA7047000010B5034ABB
:100B50002021002000F032F810BD00000004002029
:100B60007047000020B14FF48051044A116004E046
:100B70004FF48051014A121F116070471408014060
:100B800038B56C460120FFF7EDFF9F20FFF7E2FD2F
:100B900004F8010BFF20FFF7DDFD04F8010BFF2037
:100BA000FFF7D8FD04F8010BFF20FFF7D3FD04F891
:100BB000010B0020FFF7D6FF009838BD70B5044642
:100BC0000E4615460120FFF7CDFF0320FFF7C2FDBB
:100BD000C4F30740FFF7BEFDC4F30720FFF7BAFDDB
:100BE000E0B2FFF7B7FD04E0FF20FFF7B3FD287088
:100BF0006D1C301EA6F10106F6D1FFF7B3FF70BDE4
:100C000000200649888008804FF443700880084619
:100C1000008840F04000088070470000003001402C
:100C2000064903E009B900207047491E0448C0681E
:100C300000F001000028F5D10120F5E740420F0047
:100C40000020024001020304050607080900000015
:100C500000000000636160676667676F6F67676FBA
:100C60006F67676FE4E4C8CF8283AFA0EDE4C8CFBD
:100C70008283AFA00C9D28DC8E1E877C63FA4FB365
:100C8000E179E013B27C55243C62D2585F989DEB29
:100C9000BEE17DF85A83148A66E1C6D239795B39A0
:100CA000879826C13C746C9D5A95AA4F63ECF176E7
:100CB000E474D7B7EE7AC5F4B4EF6FBBD7039ECD1B
:100CC0003377497A9B411F372FAE708CF8ADEE41D8
:100CD000CBDAA73BD71DFD28F8B38DA4001E63E532
:100CE000CBC4C4DEFD01E03705B26D9305AC0E76D2
:100CF000CE68CAA852096AD53036A538BF40A39E2F
:100D000081F3D7FB7CE339829B2FFF87348E4344EA
:100D1000C4DEE9CB547B9432A6C2233DEE4C950B46
:100D200042FAC34E082EA16628D924B2765BA249A6
:100D30006D8BD12572F8F66486689816D4A45CCCC5
:100D40005D65B6926C704850FDEDB9DA5E15465798
:100D5000A78D9D8490D8AB008CBCD30AF7E45805CE
:100D6000B8B34506D02C1E8FCA3F0F02C1AFBD03DA
:100D700001138A6B3A9111414F67DCEA97F2CFCEAB
:100D8000F0B4E67396AC7422E7AD3585E2F937E846
:100D90001C75DF6E47F11A711D29C5896FB7620E88
:100DA000AA18BE1BFC563E4BC6D279209ADBC0FE69
:100DB00078CD5AF41FDDA8338807C731B112105916
:100DC0002780EC5F60517FA919B54A0D2DE57A9F08
:100DD00093C99CEFA0E03B4DAE2AF5B0C8EBBB3CFD
:100DE00083539961172B047EBA77D626E169146381
:100DF00055210C7DF0F1F2F3F4F5F6F7F8F9FAFB72
:100E0000FCFDFEFF140E0008000000204010000052
:040E10005C02000878
:0400000508000221CC
:00000001FF
